:020000040000FA
:20000000804400207D290000155C000069290000692900006929000069290000000000009D
:20002000000000000000000000000000D12900006929000000000000692900006929000010
:200040004D2B00004D2B00004D2B00004D2B00004D2B00004D2B00004D2B00004D2B0000E0
:200060004D2B00004D2B00004D2B00004D2B00004D2B00004D2B00004D2B00004D2B0000C0
:200080004D2B00004D2B00004D2B00004D2B00004D2B00004D2B00004D2B00004D2B0000A0
:2000A0004D2B00004D2B00004D2B00004D2B00004D2B00004D2B00004D2B00004D2B000080
:2000C0004D2B00004D2B00004D2B00004D2B00004D2B00004D2B00004D2B00004D2B000060
:2000E0004D2B00004D2B00004D2B00004D2B00004D2B00004D2B00004D2B00004D2B000040
:2001000053B94AB9002908BF00281CBF4FF0FF314FF0FF3000F00CB8ADF1080C6DE904CE72
:2001200000F008F8DDF804E0DDE9022304B07047704700BF2DE9F04786468C460846089E6B
:20014000154674461946002B40F0C2808542B2FA82F245D94AB1C2F1200300FA02FC2EFA98
:2001600003F3954043EA0C0C94404FEA154EA8B2BCFBFEF8230C0EFB18CC08FB00F943EAB3
:200180000C43994528D9EB1808F1FF3704D2994502D9A8F102072B44A3EB0903A4B2B3FBC1
:2001A000FEFC0EFB1C330CFB00F044EA0344A04214D92C190CF1FF3304D2A04202D9ACF10E
:2001C00002032C44241A43EA07401EB1D440002334607360BDE8F0874746DDE76346F1E79D
:2001E00092BB431B01214FEA154EAFB2B3FBFEFC200C0EFB1C330CFB07F840EA03439845B6
:2002000062D9EB180CF1FF3004D2984502D9ACF102002B44A3EB0803A4B2B3FBFEFC0EFB38
:200220001C330CFB07F744EA0344A7424ED92C190CF1FF3304D2A74202D9ACF102032C44C5
:20024000E41B43EA0040C0E7C2F1200320FA03F1954090402EFA03F303434FEA154EAFB2A1
:20026000B1FBFEFC0EFB1C10190C0CFB07F841EA0041884504FA02F422D969180CF1FF30A3
:2002800004D2884502D9ACF102002944A1EB08019BB2B1FBFEFC0EFB1C110CFB07F743EAE4
:2002A00001439F420ED9EB180CF1FF3104D29F4202D9ACF102012B44DB1B41EA004192E786
:2002C0006046E3E76146F7E76046A3E76346B7E7834206D916B9002108467BE7C6E900E0DF
:2002E000F9E7B3FA83F78FB9834201D3724508D8BEEB020460EB030301209C461EB9002184
:2003000068E73846FAE7C6E9004CF8E7C7F1200CBB4022FA0CF41C432EFA0CF120FA0CF3BD
:20032000B84001434FEA14490EFA07F5B3FBF9F81FFA84FE09FB18300B0C08FB0EFA43EA12
:2003400000439A4502FA07F240D9E31808F1FF3004D29A4502D9A8F102002344A3EB0A031D
:2003600089B2B3FBF9F809FB183308FB0EFE41EA03418E452CD9611808F1FF3304D28E45B1
:2003800002D9A8F10203214443EA0040A0FB0298A1EB0E014145CE46434602D306D14D45E1
:2003A00004D2B9EB020E68EB04030138002EA6D0B5EB0E0261EB030101FA0CFC22FA07F363
:2003C0004CEA0303F940C6E9003198E74046C5E74346D9E730B5444B444AC3F800268BB0B0
:2003E000C3F804260024C3F80826C3F80C26C3F81026C3F81426C3F81826C3F81C263C4BBB
:200400003C490293032223462046CDE9004404F016FE04F03EFE07A800F01AFC364B1B68E3
:2004200083420AD0354B33490094CDE9014301222346204604F003FEFEE7099B0393304B12
:200440002C490094CDE9014320462346032204F0F6FD079B2749DA8A05925A7D04921B7DAC
:200460000393284B0094CDE9014320462346032204F0E5FD244B1F490094CDE90143032291
:200480002346204604F0DBFD06A99DF820001F4D02F0B6F807990698098908232A4605F0F1
:2004A0003DFB044600B1FEE7069805F036FB03F065FC01F03BF802F079FA2B6883F30888EA
:2004C00084F31488BFF36F8FBFF36F8F6B6898470F4B08490094CDE90143012223462046CC
:2004E00004F0ADFDFEE700BF000001403546526EC26900001866000030060020D669000000
:20050000F46900001E6A0000376A000028060020576A000021B1012906D06FF01500704749
:20052000044B53F830007047024B03EBC0035868704700BF486600002DE9F04FAFB0DDE9DE
:200540003A89DFF818A13C9FDAF8004012A816461D4600F0BFFFB8F1000F07D0B9F1000FEC
:2005600004DD4A46414612A805F00BF833897289D6F80CB013449B444FF00008C34535D8FE
:2005800012A90AA805F023F827B120220AA9384605F091FB0023009331464FF6FF732A46BE
:2005A00004A804F077FD0646E8B92846099F00F0A7F8874217D80DF10A0302AA03A904A8CE
:2005C00004F0B6FD00280EDB42D1039904A804F0FBFDBDF80A3000BB21494FF6FF7031F82B
:2005E000022B824217D1DAF8004033E0399B389AABEB0809994528BF99464B464146284686
:2006000005F08CFA0028EED138994A4612A804F0B8FFC844B2E79342E1D1102BCBD1BDF8FA
:200620000840202CDFD10399234612AA284605F075FA0028D7D1224612A90AA804F0D2FD7B
:200640000446084B1B6883424FF00106B3D0CAE7002EC8D020462FB0BDE8F08FC404002024
:2006600094690000300600207FB50BAB05930393054B02930023CDE900330122184605F0A8
:200680006DF907B05DF804FB756A0000094A0B78400052F820108B4209D0013052F8202019
:2006A00040F26510934218BF4FF0FF30704740F265107047506600001FB50F4B13F8300045
:2006C0000C4601F09DFF50B92068816810236A46103905F023FA28B1206805F01EFA4FF0D6
:2006E000FF3006E005491022684605F0D4FA0028F2D104B010BD00BF50660000B2690000F8
:2007000010B586B0044604F074FD04AA0146204604F0A6FC68B10024074B02932046CDE9FE
:200720000044064923460122FFF79EFF204606B010BD0498FBE700BF756A00001866000084
:200740002DE9F0413B4F88B0064600200D463C68FFF7E0FE06A9C0B201F052FFE0B92946EE
:20076000FFF7D8FE2C2407A9C0B204FB056401F047FFA8B12C2068433218069B116911F0E6
:20078000100F1DD01DB10699304604F02BFE2A4B1C68069805F0C1F9204608B0BDE8F081D3
:2007A000079805F004FA8046079805F0B6F9631EE21C13F8011F4145DCD19A42F9D1E1E753
:2007C00036581E48864231D1D668108980192DD2528912182AD29868824227D240F60C628A
:2007E000114023D14FF480720192154A0092CDE90311224602910846FFF79EFE0446114BB0
:200800001B68A342C5D09DB106980021826805F0AFF90D4B03930D4B02930023CDE9003360
:200820000B490122184604F022FDB0E73C68E6E7084BEFE7C4040020C00400203DB8F39655
:200840000413002030060020B36A0000BD6A000018660000AB6A000070B50D4688B004463A
:2008600000212846CDE9061104F07BFD60B323681C4EB34203D107AA204604F007FDE36A83
:20088000B34204D106AA0121204604F0FFFCDDE90632934288BF0793079BAB60079A2946F6
:2008A000204600F01DFC104B1B68002B0ADD03930E4B02930023CDE900330D490222184671
:2008C00004F0D5FC08B070BD05A9FFF7F5FE059805F1080104F098FCAB680598079305F074
:2008E0001CF9DBE73DB8F39604120020E06A0000186600002DE9F84FDFF870B01C4C1D4D7F
:20090000884691469A4600260B9B9E4201D300200FE00B9B154A9F1BB7F5806F28BF4FF43F
:2009200080673B4606EB0A01404605F0F7F810B10120BDE8F88F0A993B465A467118484600
:2009400005F001F90028F3D1C4F800563E44C4F80456C4F80856C4F80C56C4F81056C4F8FC
:200960001456C4F81856C4F81C56CDE734060020000001403546526EF0B5AB4B43620F4696
:2009800003F56E73002103658FB004460846FFF7C1FD04F120010646C0B201F031FE05462B
:2009A00020BB0121FFF7B6FD04F14C010646C0B201F026FE054648BB204604F0A8FC0646E4
:2009C00030BB00221146204604F03BFC054600283FD0964A0023CDE90132039300939449AE
:2009E0000222184604F043FC0123B2E00023914A8F49CDE905350023CDE90132CDE903639E
:200A000000930122184604F032FCFEE70123EEE777230393884B86490095CDE9015302222D
:200A20002B46284604F023FC01239E4284F85830C7D194F858308DF82F30042B00F28C80FF
:200A4000012B00F2908000F0A380FF2384F858309EE0204600F016FA0028C5D00AA804F0E8
:200A600077FC0146204604F011FD30B1734B0395CDE9015300952B46B1E70AA804F071FC62
:200A800080F001010AAAC9B2204604F0DAFB024600289ED10AA804F064FC054690BB0AA958
:200AA0002046FFF7D9FE9DF82F3084F85830033B012B06D8284600F0F1F810B1FF2384F81D
:200AC00058309DF82F30023B022B11D8002000F0CFF868B1FF2384F85830594B02930023D5
:200AE000CDE9003352490122184604F0C0FBFEE794F85830FF2BF0D00AAA0021204604F030
:200B0000A0FB71E79DF82F60012E17D1104604F041F8831E022B05460DD831462046FFF753
:200B20000FFE484B1B68984205D0474B1D68A84214BF0525012584F858507AE701212046B2
:200B4000FFF7FEFD3F4B1B6898420CBF9DF82F30052384F858306CE7052B7FF476AF002097
:200B600000F09CF811E00AA92046FFF775FE94F85830DA1E012A1BD8002000F08FF8002895
:200B80007FF463AF002000F073F800287FF45DAF94F85820FF2A4FF000030CD1284A244983
:200BA0000093CDE901321846012204F060FBFEE7022BEDD1E6E7012A244D099314D01A46D0
:200BC0001946204604F03DFB70B12D68102200210AA805F07BF8E06C04F09FFF206A04F0A5
:200BE0009CFF28460FB0F0BD00212046FFF7A8FD144E33688342E8D12A689A42E5D0124A64
:200C000012689A42E1D0099B01330993099B012B00D0FEE7206A04F021FA3871236A5B6842
:200C20003C603568BB60D1E7340A00208F6B0000186600000A6B0000526B0000B66B00007F
:200C4000DB6B000030060020C0040020C404002038B5064D044660220021284605F036F86E
:200C600021462846FFF788FE38BD00BFA411002013B5094B01A913F8300001F0C1FC48B9EA
:200C8000019805F04BFB0446019804F046FF204602B010BD0124FAE7586600001FB50F4B8D
:200CA00001A913F8300001F0ABFCA8B9019802A903F01AFF044668B99DF80B30032B03D1C9
:200CC000019805F0F9FA0446019804F026FF204604B010BD0124F7E70124F8E758660000EB
:200CE0002DE9F34106460C4617461D460BB9002628E0184604F035FB0028F8D16946FFF742
:200D0000DBFC009838B90124009804F006FF204602B0BDE8F08101A904F076FA0028F2D196
:200D2000009804F0FAFE3046019904F00CFC736A5E686B79012B21D1002CD8D12B68834251
:200D400098BF002621460020FFF7E4FB6946C0B201F056FC0028D6D1009820233A463146B5
:200D600004F0DCFE04460028CDD1002DCCD03C680D4BE41A18BF4FF0FF34C5E7022BB6D129
:200D80002B68012B05D98342B1D8B4FA84F46409ADE7ACD1002CD5D0012CA8D12C79023C6A
:200DA00018BF0124A3E700BF3DB8F3962DE9F04F074689B00C46014600201646FFF766FC28
:200DC000051E56DB3846E46D04F013FA5FFA84F96B1E09FB03084FF0000A4FF0010B4FF0AE
:200DE000FF34CDB9BAF1010F09DD244B24490095CDE9015301222B46284604F095FB631C19
:200E000006D0762C2ADC013440F201133460B380284609B0BDE8F08F6B1E04930DF11F0288
:200E200001234146384604F079FE031E059322DB01220DF11F01384605F0D9F9059B40B151
:200E40009B4501D00AF1010A049DA8EB09089B46C7E7B4F1FF3F08BF2C46F5E70223773C37
:200E60007371631004F001040133013433603471CEE70725CCE70125CAE700BFE26B00000A
:200E800018660000F0B5866A456D85B0044604F03AFBAE4208D06B1CB34205D0834203D034
:200EA0001D4B0293002305E0772E4FF0000326D91A4A0292CDE9003319490222184604F08E
:200EC00033FB002005B0F0BD626A02EBC3025768226D02EBC3025268BA4201D0114BE0E73A
:200EE00001339D42F0D1204604F0D1FB034640B90D4A0B490090CDE901020222DFE71F4673
:200F0000EFE7AE4205D9636A03EBC5035B689F42E4D10120D6E700BF006C0000336C0000A9
:200F2000186600005D6C0000846C000010B58CB008A9012005F0CDF99DF82020012A55D0C7
:200F4000334B3449032A08BF0B469DF8232007929DF8222006929DF821202F4C2F49029412
:200F6000CDE904322E4B0393002303221846CDE9003304F0D9FA0AA9022005F0AAF99DF81E
:200F80002820012A34D0224B2249032A08BF0B469DF82B2007929DF82A2006929DF82920EF
:200FA0001E49CDE904321F4BCDE9024300242346CDE900440322204604F0B6FA9DF82030DE
:200FC000012B17D19DF82220032A13D19DF82830012B0FD0144B11490094CDE90143204670
:200FE000234604F0A1FA02200CB010BD0F4BACE70E4BCDE700240E4B02932046CDE90044E2
:2010000006492346032204F08FFA2046ECE700BFB86C0000C16C0000D56C0000186600006E
:20102000C76C0000116D0000216D0000BC6C00003B6D000070B54B681446224A03F0FF23EE
:2010400093428AB006460D4637D10B68012B34D108A9204603F048FD9DF82020012A2ED0E9
:20106000194B1A49032A08BF0B469DF8232007929DF8222006929DF821201549CDE9043264
:20108000144B0393144B02930023CDE900331846032204F049FA9DF82030032B0DD1214649
:2010A000304604F09FF9204605F006F9A968204604F0B8F8204603F0F7FC0AB070BD074B34
:2010C000D3E700BF00010004B86C0000C16C000018660000116D0000D56C0000BC6C0000DC
:2010E0002DE9F04F8DB00027814B0293054616463B460C4603227F493846CDE9007704F0D0
:2011000013FA3146284604F01EFA6B6A824620465E6804F026F968B3E86D04F065F8AB6A1F
:2011200003F1FF383744B84202D908F1FF38F9E7D0451FD80025704B6E49029302222B4657
:201140002846CDE9005504F0EFF906FB08F304936A4B684900950AFB0666CDE90153039698
:201160002B460222284604F0DFF90123E3710DB0BDE8F08F0AA9012001F042FA0BA9022070
:2011800001F03EFA0B9A21462846FFF753FF6379012B4BD1DFF868B1574641E02268C2F155
:2011A000010353449F423AD86B6A196853F8370003EBC703012A53F8083CA3EB0103A0EB3A
:2011C0000109089311D10B9B0793E368022B08D04146284604F006F922464146284604F0BF
:2011E00036F90799284604F0FDF832464946404604F0F6F8089B42464146CDE900962846EE
:20120000FFF778FB2146284604F0B8F823680133236020B1DBF800300133CBF80030013F6F
:20122000DDF82880002FB9D1012323600223637101275745DDF8289006D9484604F06DFCBD
:201240000B9804F06AFC92E723689F424DD36A6ADDF82CB052F837100891FB00083B116826
:201260000791D1582A6DD0581368A0EB03082379012B38D1079B3246C91A4846099104F0F3
:20128000AFF80999009143464A46594601962846FFF730FB2146284604F070F802232371AC
:2012A00018B1174A13680133136032464146584604F096F8DDE9072349469B1ACDE9008653
:2012C0005A462846FFF716FB2146284604F056F82368013323600123237130B1084A13683A
:2012E0000133136001E0022BDFD00137A1E700BF4D6D000018660000716D00009B6D0000ED
:20130000041200202DE9F04F9DB0036802934368039383680493C3680593036906934369BE
:20132000079383690893C3690993DDE9062CDDE904BEDDE902469846DFF890A1089B00931A
:201340000027CD595AF8049B0CAB2DBADD514FEAF223A94483EAB213009D83EA72634B44A8
:2013600025EA020502EA0C0985EA09052B44434486EA0B054FEA743888EAB408254006EAFB
:201380000B0985EA090588EAB4580437A844402F03EB0E054344DE46DDF8008040F0878070
:2013A0004B490A914FF0100A51460AF1010A0DF1700E0AF00F070EEB870701F00F0957F89D
:2013C000407C01974FEAB74888EAF71801F10E0707F00F070EEB8707093157F8407C4FEAE7
:2013E000F74E8EEA774ECDF82CE001F00F010DF1700E0EEB81010EEB890951F8401C59F821
:2014000040EC7144DDF804E088EADE08DDF82CE041448EEA972E714405EA02084FEAF52E2D
:201420002CEA050787EA08078EEAB51EDDF8288049F8401C8EEA756E774458F804EFCDF887
:20144000288077440F440099CDF800C039444FEA733E84EA06078EEAB30E1F4004EA060842
:201460008EEAB35E87EA08077744BAF1400F01EB0B0E0F44B34622D1029939440160039955
:201480001944049B416023448360059B3344C360069B73440361079B2B444361089B1344C0
:2014A0008361099B6344C3611DB0BDE8F08FCDF800C0B346944626462A461C4641E7944650
:2014C00026462A461C4675463B466DE7606600009C66000010B50446C8B17022002104F047
:2014E000D4F80B4B0B4A0C490C48C4E900230C4BC4E902130B4BC4E904030B4BA36103F18B
:201500007453A3F52303A3F69243E361012010BD85AE67BB67E6096A72F36E3C7F520E5152
:201520003AF54FA58C68059BABD9831FBFF36F8F72B6124B4FF0FF32C3F88020C3F884206F
:20154000C3F88820C3F88C20C3F89020C3F89420C3F89820C3F89C20C3F88021C3F8842141
:20156000C3F88821C3F88C21C3F89021C3F89421C3F89821C3F89C21704700BF00E100E0A0
:201580002DE9F04F91B08407009302F004030293C2F3C20303F10103DDF8688003920546FA
:2015A0000E46059340F0BA81041D30B1072909D86FF01B0011B0BDE8F08F01F007063444EC
:2015C000C6F10806009B4FF00009591E4FF0040A4FF0FF330193CDF810904F46CB465346F6
:2015E0000DB1009A22600598002800F3E8809848009A824203D397488242C0F0E080039A8D
:20160000A4EB050E92074FEA9E0000F103810F2F00F2B180002D00F0058107F140020DEB0D
:20162000020C019A0CF8200C0CF8102C049801300490E7E07A285DD84B280ED8472859D899
:2016400029282DD8252852D054D820287AD02338D0F1000B4BEB000B74E04C382E2849D850
:20166000DFE800F07048484848484848484848484B484848484848484859484B4B5959595E
:20168000704B6D487048184B184848827F4B48484B487F0000204FF0000B4FF0040A38E05A
:2016A0002A38C0B2012202FA00F010EA0E0F49D110F0625C2FD110EA020B43D06046013C5B
:2016C0005444B4FBFAF40AFB04F4002D61D0A3EB050CA444B4453FF66BAF002868D1042B1B
:2016E00047D158F8043B2360043404232AE0019A013A01924FF0000B24E011F8010C6C28F6
:2017000034D111F8023C00206C2B8346C5D14FF0080A5346D3E708F1070828F00708073459
:20172000F8E802AB24F0070435B106982044B0423FF63EAFC4E900AB08344FF0000B4FF0E4
:20174000080A534611F8010F002878D0BBF1000F7FF470AF2528F5D1019B013301934FF052
:20176000010B4FF0040AECE7584694E700208346A5E7082B02D06FF015001BE708F107082C
:2017800028F00708F8E80223C4E9002308340823D8E768B9042B02D108F10408A4E7082B41
:2017A000E9D108F1070828F0070808F10808EDE7059A013A059258F8042B009210E7039A4D
:2017C000900720D5A4EB050E4FEA9E004FF0010CBEF5007FCFD20F2FCDD8F5B107F1400222
:2017E0000DEB020EC0B2019A0EF8200C0EF8102CBCF1000F3FF41AAF60F07F000EF8200CA7
:2018000009F101090137C5F10802043406924FF6DA7E97E74FF0000CDAE7BCF1000F01D048
:201820000136EFE7029802360028EBD10098CDE9063104F029FADDE906310644E2E7631BBB
:20184000B3F5806F97D23DB9A6F10804E018B1E6E463000028700000029A28609B082B701F
:201860009DF81030C2B1EB7085F80290B9F1000F05D008A80022C5F1010C97420ED1C5F125
:2018800001030DF120084FF0000A01930DF1300B574512D1601B8DE66B70E5E710F8013BB0
:2018A000190608D50CEB040EB64503F07F033FF67FAE04F8013B0132DFE7B9F1000F03D094
:2018C00098F90020002A17DB029BD3B11AF80B2004F8012B0022019B18191044B0423FF64B
:2018E00067AE98F8000004F8010B00990392204604F0E1F9039A14440AF1010A08F10108DC
:20190000C6E798F8002055F822300093029B45F82230009804F0B8F9421CDCE76FF00D0042
:2019200048E600BF014B1860704700BFC80400202DE9F04F8DB01D46531E8246019103933E
:201940004FF00009039B5878252803F1010419D11E4600204FF0FF3802360346029044460A
:2019600031780396392954D81F2914D8002900F0EE8101992520D04701993078D04709F192
:201980000209DFE7002800F0E2810199D04709F101090394D6E7A1F12002192AE9D801A792
:2019A00057F822F00D1A000073190000731900000D1A0000731900008D1A000073190000A1
:2019C000731900007319000073190000D91A00000D1A000073190000ED1A0000991A000003
:2019E00073190000A71A0000C71A0000C71A0000C71A0000C71A0000C71A0000C71A000054
:201A0000C71A0000C71A0000C71A000008460136A6E7582900F0EB80A1F16302D7B2172F6F
:201A2000A7D8172AA5D801A757F822F0951C0000131B0000731900007319000073190000DD
:201A4000F31A0000131B00007319000073190000F31A000073190000731900007319000082
:201A6000C91B00007319000073190000691C000073190000131B0000731900007319000013
:201A8000C91B000073190000F31A000001992520D04709F1010955E7029A02F0FE02029271
:201AA0004FF00008B3E7002C0DDAB8F1000F0DDA029A002A00F0438124EAE4740A2202FB8A
:201AC0000414303CA3E7B8F1000FF5DB0A2202FB0812A2F130089AE7B8F1000F55F8042BAD
:201AE00080F22F81002A80F22E815442022202928DE7682903D1682B06D1482387E76C297A
:201B000002D16C2B00F02181002B7FF432AF0B467DE77A2B06D1752955F8046B14D14FF09B
:201B2000000B0CE06C2BF6D04C2BF4D1073525F007037529D3E9006B03F1080506D12028D5
:201B40003BD1854F013C09E04FEAE67BBBF1000FF5DA7642814F6BEB4B0B013C0DF12D03BC
:201B6000059300230493304659460A220023FEF7C7FA059B303203F8012DB4460593049B9D
:201B80005A46BCF10A0F8B4672F1000203F1FF3106460491E7D2C3F1010B30330DEB0306C7
:201BA000B8F1000FA6F104066DDA029BD9077DD4A8EB0B03A4EB0B0413E02B280ABF684FB2
:201BC000684F04F1FF34C9E770290FD155F8042B0023FAB9634F644E053C6FF004034FF061
:201BE000050B029A920770D4A04666E078216C2B03D155F8042B002308E04C2BF9D1073528
:201C000025F007031D465B6855F8082B232825D1880621D5554F023C01F06001A1F1390B30
:201C20000DF12D0E002602F00F01092988BF594430310EF8011D102A4FEA121141EA037173
:201C40004FEA131C73F1000306F1FF3008D2C6F1010B06F13003A1E7454FDCE7414FDBE797
:201C600006460A466346DEE755F8046B304604F00BF8B8F1000F834602DB4045A8BFC346DE
:201C8000384F4FF00008A8EB0B03002B92DDA4EB0804A6E755F8043B8DF81830314F013CFD
:201CA0004FF0FF334FF0010B06AE9AE7A046EAE7029301992020D047029BB8F10108F7D5DB
:201CC00024EAE472013C9144A41AB84606E0049302920199D047029A049B9046424612F86D
:201CE000010B0028F3D11A46013A15D5002BACBFC7EB03077F425B46013B15D5BBF1000FD2
:201D0000A8BF5F444F442646013E14D5002CA8BF3F1907EB080915E6049302920199302094
:201D2000D047049B029ADFE70293019916F8010BD047029BE0E701992020D047E4E70122E8
:201D4000D5E6904663E6144661E64C235FE648460DB0BDE8F08F00BF1F6E0000C76D000065
:201D6000C96D0000D96D0000D16D0000CB6D0000CE6D00002DE9F047058B0446280790460A
:201D800011D4022905F0070540F0CC80204603F0CCFC78B10138218B042811D8DFE800F0BB
:201DA000C2106D85950001290CBF45F0100545F02005258388F31188BFF36F8FBDE8F087A9
:201DC00001F0070AAA4500F0A5800027B9463E46A368002B00F0BC8041F00801218388F398
:201DE0001188BFF36F8FA168002900F0BA800D68002900F0B680D1F80480334652462046B6
:201E0000C047002D76D02B6829461D46F0E701F007035A1F012A1BD8002221F00701062B0E
:201E2000276889B2C4E9002209D13B4603E0628B013262831B68002BF9D141F00201218376
:201E4000204603F072FC00287AD041F0200176E0042B0AD121F0070189B22183204603F046
:201E600064FC10B141F020012183218B01F0070AAA454FD00027B946AAE7236921F0070133
:201E800041F00601062DD3F8009021832DD1B9F1000F3FD041F00801218388F31188BFF36E
:201EA0006F8F3A492046C84729E021F00701236941F0040189B2042DD3F804902183E6D023
:201EC00000273E464FF0040A82E721F00701236941F0050189B2052DD3F808902183D6D0AB
:201EE00000273E464FF0050A72E700273E464FF0060A6DE72B4687E7B9F1000FD1D1EFF326
:201F00001188202383F31288BFF36F8F238B23F008032383258BEA062ED525F01003238342
:201F200005F007056669218B002EBFF670AF00232768C4E9003321F0070141F001012183A1
:201F4000218B01F0070AAA454FF000097FF440AF002F9CD041F00801218388F31188BFF3FB
:201F60006F8F002FC8D03D68394633465246204603F007FC2F46F4E7AB067FF51BAF25F0B7
:201F80002003238305F0070500E700BFAF5700002DE9F04780462B4803F0A3FC064670B93E
:201FA000294CDFF8A890054627464FF0010A4C4507D3B8F1000F02D04FF00109E5B9BDE81A
:201FC000F087237B6BB12368DB680BB12046984723681B6943B9636804221968204600F02E
:201FE000C1F801361034E2E7204698470028F2D00AFA06F31D43F4E7A84695FAA5F4B4FAB9
:2020000084F409FA04F3260107EB04146FEA030A25EA0305237B5BB1BB591B6963B93E44C0
:20202000042273682046196808EA0A0800F09AF8002DE2D14546C1E7204698470028F7D1EA
:20204000EDE700BF101200202066000040660000014B53F8200070476067000008B5034644
:2020600008462BB1044A136000F02CFA002008BD6FF01500FBE700BFCC040020054A0648D8
:2020800000231370054A1360054A4FF400411360FFF7E4BF04140020DF5800000812002050
:2020A0000C12002070B50B4D2B7843B90120FFF76FFF094C094EB44202D301232B7070BDDE
:2020C00063685B791BB1236820469B6898471034F1E700BF04140020206600004066000083
:2020E00010B50446084803F0FCFB5CB1BFF35B8F064B53E8001F013943E80012002AF8D1D9
:20210000BFF35B8F10BD00BF081200200C12002070B50A4B0A4C1B680A4E05469847A86042
:20212000B44200D370BD63685B7923B1236829461B68204698471034F2E700BFCC040020A8
:202140002066000040660000044A054B9B1AB1EBD30F34BF52F831000020704718660000BF
:2021600020660000084BC31A10B41B1144680133237143689A7143681960436801225A71D2
:2021800010BC03F0CFBB00BF20660000406820B1034BC01A40F3CF0070474FF0FF30704732
:2021A000186600000EB403B503AB014653F8042B0448019303F041FC02B05DF804EB03B0FF
:2021C000704700BF035A0000CA0605D48B064CBF02490349FFF7E6BF704700BFD86D0000FA
:2021E000D76D00002DE9F04F87B004469DF844600D4690469946002E00F0A280159B03F0A1
:20220000020A03F001030493159B03F0080B03F48073059303F087FB024600283DD095491C
:202220002046FFF7BFFF0746BAF1000F09D0159B13F0440F33D190492A462046FFF7B2FF44
:202240000744049B53B18D4B8D4953F826208D4B2046002A08BF1A46FFF7A4FF059B002B5E
:2022600049D0BBF1000F64D1B8F1000F66D0864942462046FFF796FF0546129B3D44002B7B
:202280006DD1149B002B73D1159BDB0700F1EB8015992046FFF798FFD8E00746C4E77B4BDD
:2022A00018680028CCD07A4B4FF47A7A1B68B5FBF3F54FF46161B5FBF0F300FB13550AFBC3
:2022C00005F54FF03C0CB3FBF1F201FB1231B5FBF0FEB1FBFCF300FB1E550CFB13110AFBD6
:2022E00005F50091B5FBF0F56A49CDE901E52046FFF758FFA4E7BBF1000F1DD0664B674928
:2023000053F826202046FFF74DFF0546B8F1000F05D05D4942462046FFF744FF0544B9F1EC
:20232000000FAAD05E494A462046FFF73BFF0544A3E74FF00009E1E75D46E7E745469CE7E5
:20234000B9F1010F129B06D1002B66D1149B002B7CD000250CE0002BF8D052485EE0524841
:20236000129B5249224603F0A0F9149B002B6AD0DFF83C81DFF83C91149F1599102F2046CF
:2023800028BF1027FFF720FF4FF0000B5D4547DC139B49461A782046FFF704FF4FF0010B82
:2023A0001BF0070F03D141462046FFF7FBFE5F453DD9139B494613F80B202046FFF7F2FED3
:2023C0000BF1010BBBF1100FEAD13B49DFF8ECB020464FF0000AFFF7E5FE5246139B9A5CB4
:2023E000A2F120015F2928BF2E2259462046FFF7D9FE0AF1010ABAF1100F1DD01AF0070FBB
:2024000003D141462046FFF7CDFE57455246E5D841462046FFF7C6FEEBE7234835469FE764
:2024200041462046FFF7BEFE0BF1010BAEE724492046FFF7B7FEC3E7139B3B441393149BB6
:20244000DB1B149398D1002E7FF41EAF6268A1682068D2E9002303F0C6FA636800221A60B5
:2024600007B0BDE8F08F074A05492046FFF79AFE0EE700BFDF6D0000E36D000070670000C7
:20248000D86F0000DA6D0000086E00001812002014120020EC6D0000846700000C6E0000EA
:2024A000126E00001F5A0000035A00003B5A00001F6E0000176E0000216E0000236E0000FF
:2024C0001D6E0000074A00210123904206D8064A01B901231360054B1860704740085B0068
:2024E0000121F2E740420F001412002018120020014B01221A70704705140020014B00206B
:20250000196070473012002010B5064B18680C46FFF79EFD21460346BDE8104002480F2290
:20252000184700BF30120020B4670000F8B5094D094B0A4ED5E9004701221A700CB92C604E
:20254000F8BD214630463A4600F00AF8241A0644F4E700BF2412002006140020071400208A
:20256000F8B5194D07460E46042432463946002002F0D4FBC8B101232B70144B1B782BB999
:202580003046F8BD5CB92C704FF0FF34002002F009FC0028F4D02B78002BF3D1F0E7013C44
:2025A00041F2883003F0C9FEF0E72B7813B1013C04D12C702B78002BD7D1E1E741F2883061
:2025C00003F0BBFEF6E700BF0514002006140020F8B5074F0D4604464618B44201D128460C
:2025E000F8BD14F8011BBB6801485B689847F4E770640000014B036000207047F86700005C
:2026000070B5114B1C680D46DCB1104B196800238B4202DB6FF0010070BD224612F8106BB2
:20262000864202D001331446F2E7E06810B96FF01200F1E703F086FE0028F8D02C6000202C
:20264000EAE76FF00C00E7E7D8040020F867000070B588B005460C46C0B269461646FFF7A8
:20266000CFFF00281BDB0098C8B143680293836822680195CDE903360023CDE90623059389
:20268000C56803F04AFA6DB12846084901AA03F0D8FB079808B9059B236008B070BD6FF0C1
:2026A0001500FAE76FF01200F7E700BFBD5B000008B5044803F02CF8BDE80840024803F0B4
:2026C00027B800BF676E00008D6E000030BFFFF7FDBF00BF70B5264B15469A6A12F0100F16
:2026E0009A6A14BF1124102412F0080F9A6A18BF1224920706460AD5586B9A6A140634D5C2
:2027000019B19A6A22F080029A62132401E06FF01500174B9A6A12F0010F9A6A18BF142444
:2027200012F0200F9A6A18BF1524D20602D49B6A9B070AD50E4B5B68190506D5314600F0A4
:20274000C5F910B180F309880224094B9A6A920642BF5A6A22F400525A629A6A42F0FF02C0
:202760009A6200232B70204670BD6FF01500CCE700ED00E0134B9A6A12F0007F9A6A14BF5E
:202780001E201D2012F0807F9A6A18BF1F2012F4002F9A6A18BF212012F4802F9A6A18BFC2
:2027A000222012F4003F9A6A18BF232012F4803F9A6A6FEA02426FEA12429A6218BF24204A
:2027C000704700BF00ED00E010B5194B0246986A9C6A10F4805F14BF1720162014F4006FA3
:2027E0009C6A18BF1820A40509D5986B986A000404D51AB19A6A22F400429A6219200C4BA8
:202800009A6A12F4806F9A6A18BF1A20D2050CD49B6A13F4005F18BF1C20054A936A43F4F2
:202820007F43936200230B7010BD1B20F5E700BF00ED00E070B5454B5B688AB00546C3F320
:202840000803002686F31188BFF36F8F02F07F40B0F17F4F11D102F00C0008280DD0100761
:202860004CBF0D4601260022033B8DF80720032B05D8DFE803F01E5D615A3546F3E7002453
:202880009DF807309BB92022294602A803F013FA099B002E54D0C3F3080222B96FEA53235D
:2028A0006FEA4323099302A9204603F0A9F90AB070BD264BDA6A9107E1D4DA6A002ADEDB07
:2028C000DA6A5200DBD55A69A96942F480725A61BFF34F8FBFF36F8F5A6931F8021C22F49A
:2028E00080725A61BFF34F8FBFF36F8F4DF6027291420AD09A6AD2B24AB10DF107020121DB
:202900002846FFF7E7FE0446BAE72C68B8E79A6A12F47F4F05D00DF107010120FFF754FF33
:20292000F1E79B6AB3F5803FA9D3FFF723FFEAE70DF107020021E3E70DF107010020EDE702
:2029400023F4FF7323F00103ACE700BF00ED00E0044B5A6942F010025A615A6922F00802C8
:202960005A61704700ED00E0EFF30880EFF3098101B57246FFF75EFF01BD00BF01F030FAE9
:20298000202080F3118808484FF40461401880F30988EFF314800221084380F31488BFF3F2
:2029A0006F8F00F06FF80000401400200749D1F890200023C2F307221846934200DB7047BF
:2029C000C1F89830C1F8A0000133F6E700ED00E01EF0040F0CBFEFF30880EFF30980816994
:2029E00011F8021C0229FFD001B5724603F00EF901BD00BF40B2002807DB044A4109012319
:202A000000F01F00834042F82130704700E100E040B200280CDB4309064900F01F002033E3
:202A20000122824041F82320BFF34F8FBFF36F8F704700BF00E100E0054B420900F01F0014
:202A400053F82220012303FA00F01040704700BF00E100E040B20028A8BF00F1604001F14D
:202A60000101B8BF064B4FEA4111ACBF00F5614000F00F00C9B2B4BF195480F80013704764
:202A800014ED00E00F4A08B50F4B22F07F029A60BFF34F8FBFF36F8FD3F8882022F470021D
:202AA000C3F88820EFF3148323F0040383F31488BFF36F8F02F0B0F902F0F8F900F03AF8BE
:202AC00002F0B6F90000000000ED00E010F1160F074B08D0984208D34033834205D98B42A0
:202AE00003D9044870474033F9E70020704700BF801C0020C01C002080B50C460746154627
:202B0000064E86F309884FF0000005498847204629461A46B84703488047FEE7C0440020AC
:202B20002D5C00003B5C0000014B10221A61704700ED00E0044800232021C2180133302BDF
:202B400082F80013F9D1704700E100E008B5EFF30583064A103B02EBC30152F83300496805
:202B60008847BDE8084003F05CB800BF98640000024B034A0348022100F066B8000004209D
:202B8000000000203C680000084AC2F898000B6823F01F03034343F01003C2F89C308B6820
:202BA00043F00103C2F8A030704700BF00ED00E02DE9F043DFF8608085B00E461F460446D9
:202BC0004FF00009B14523DA6068D8B13FB1411E08421BD11F2819D92368194216D1236853
:202BE000019303F041F8A36803430393D8F89050C5F30725D0B2013DA84207D801A9FFF771
:202C0000C3FF421C09F101090C34DBE76FF01502104605B0BDE8F08300ED00E0044B0522B2
:202C2000C3F89420BFF34F8FBFF36F8F704700BF00ED00E0BFF35F8F024B0022C3F8942024
:202C4000704700BF00ED00E010B5034C01232278FFF7AEFF207010BD091400202DE9F043D9
:202C6000534B544CD3F890302568C3F307239D4285B000F29A80FFF7DDFF00200C26854213
:202C80001AD14D4C4D4F25706846FFF7B3FCDFF82081DFF82C9106460025AE4213D1237840
:202CA00043490020D1F89020C2F30722934276DBFFF7B4FF002042E0616806FB0011FFF72F
:202CC00063FF0130DBE7009800EB05114FEA051CCB683B40B3F5000F48D00AD8B3F5001F86
:202CE00030D0B3F5800F36D0B3F5801F10D00135D3E7B3F1807F42D0B3F1007FF7D150F898
:202D00000C3088684A6802F0AFFF40F4802009E050F80C3088684A6802F0A6FF40F08850B3
:202D200040F43020CDE901230390D8F890302078C3F30723013B98422AD96FF0150005B058
:202D4000BDE8F08350F80C3088684A6802F08CFF40EA0900E6E750F80C3088684A6802F0A0
:202D600083FF40F0007040F40030DBE750F80C3088684A6802F078FF40F08270D2E750F859
:202D80000C3088684A6802F06FFF40F08870C9E701A9FFF7F9FE237801332370A7E7C1F8DD
:202DA0009830C1F8A00001337CE74FF0FF30C6E700ED00E054680000091400200000F0FF8B
:202DC00000000811014B1860704700BFDC0400200E4A0123C2F840354FF080424FF08051E4
:202DE000C2F87835D1F83001082808D1D1F83411052904D80648415C09B1C2F838364FF045
:202E000080430122C3F880250020704700E00140C86E000020B1034B800143F00103184708
:202E2000704700BF40660000084B70B5C31A0D4607499B10044659430648402202F05BFFF1
:202E40002B4601462046BDE8704018476C120020B76DDBB63464000073B50C4C0C4A40237C
:202E6000041B00930D460B460A49A41061430646094802F06BFF011E05DA30462B4602B0C1
:202E8000BDE87040184702B070BD00BF6C120020BB5D0000B76DDBB63464000010B5EFF336
:202EA0001184202383F31288BFF36F8F074A136823F00201DB07116002D4012003F0E4F87F
:202EC00084F31188BFF36F8F10BD00BFBC120020002270B5012104461046FFF7BBFD0F48AA
:202EE00001F008F90E4B984215D101F013F926690C49304602F068FC00280BDB012535644D
:202F00002469084904F11C0002F05EFC002801DBE564002070BD6FF00400FBE7ED2F00007B
:202F20000000AD0B7468000030B4104B0C2202FB003301460020D3E90E529863EFF311806F
:202F4000202484F31288BFF36F8F1C6C04F0C00444F002041C6480F31188BFF36F8F1DB1E8
:202F60002B46034830BC184730BC70476C1200203464000010B4EFF31182202383F31288E5
:202F8000BFF36F8F1748016841F002040460C80707D482F31188BFF36F8F012010BC01F0D8
:202FA000CBB84FF08041D1F80C04D1F80C14C907EFD5EFF3118083F31288BFF36F8F0A49B2
:202FC0000B6C03F0C00343F002030B6480F31188BFF36F8F82F31188BFF36F8F002010BCB7
:202FE000FFF7A2BFBC1200206C12002010B1012804D07047034B1B6C5B0701D1FFF794BF27
:20300000704700BF6C1200202DE9F8433649BFF35B8F0746012251E8003F41E800200028D7
:20302000F9D1BFF35B8F33B9304931484B60CB608A6002F0DCFB7B1E012B2DD8012F07D1F1
:203040004FF08043D3F81C3403F00303012B23D003F0BEF9054608BB264B1B78F3B14FF09C
:2030600080430222C3F808230646DFF88C904FF080444FF00108D4F81824D4F81834D20304
:2030800015D503F00303012B01D0012F0FD125B386F31188BFF36F8FBDE8F883EFF311860D
:2030A000202383F31288BFF36F8F0125DDE7304602F0CBFDD4F81835002BDCD1D4F8042111
:2030C000002AD8D0C4F80431D4F80431C4F81885C9F88081C4F80880CDE74FF080430222F3
:2030E000C3F80423D8E700BF6812002058120020881200200D14002000E100E008B5074884
:2031000003F020F938B10648FFF75CFE0448FEF709FC002008BD6FF01200FBE770640000CA
:20312000253100000A2838B5074D044604D1AB680D215B6828469847AB6803485B68E1B2A2
:203140009847204638BD00BF70640000024B0B6001231360704700BFC012002000487047EC
:20316000C868000010B503F01BF8034C206003F013F86060002010BDC01200204FF08042E7
:20318000D2F81015D2F8103501F01E0123F01F030B4343F00103C2F81035024B00221A706F
:2031A000704700BF0A1400204FF08053D3F83031082B20D14FF08042D2F81015CB071AD548
:2031C000D2F8103501F01E0123F01F030B43C2F81035D2F808315BB1D2F8103523F01F03FB
:2031E0000B4343F00103C2F810356FF08B007047024B01221A700020704700BF0A140020DC
:203200002DE9F0410D46164602F0C6FF31460746284602F042FE28B3B5FBF7F307FB1353C0
:2032200003BBB6FBF7F407FB1464DCB9B74213D802F0B2FFDFF834800746FFF7B5FF0446D2
:2032400068B9284601F0FCFB98F800300BB1FFF795FFF61B3D44F0D12046BDE8F0816FF0C3
:203260008B04F9E76FF01504F6E700BF0A1400202DE9F8430E463046194617461C4602F062
:203280000CFE30B344EA060515F0030521D11CB3DFF848906319032BA6EB050807D8104A0A
:2032A000D2F80034DB07FBD50020BDE8F883FFF77BFF58B97B1B4046196801F0E1FB99F8A2
:2032C00000300BB1FFF75AFF043DE3E76FF08B00EBE76FF01500E8E72046E6E70A14002038
:2032E00000E00140F0B54068057B01F01F0444EA4514056987B0002D64D0B2F5001F00F188
:20330000100506D12146284602F03EFF002007B0F0BD01AE0027B2F5800F0197776039D1B4
:20332000B3F1007F14BF052304238DF804300023CDE904630393836823FA01F111F00101BC
:203340001AD1B2F1A07F17D104F01F03620903F5E0732AD0012A3BD11F4A52F82330DB07F3
:203360000AD40DF1030632462146284601F0C2F91A4B98421CD0029603AA2146284601F039
:203380007BF8174B984220D101222146284601F015FABBE7B3F1C06F05D0B3F1007F14BF55
:2033A00001230223C1E70323BFE74FF0A042D4E73146284601F0FCF9094B9842DBD06FF071
:2033C0000B00A4E76FF08500A1E76FF015009EE751F82330FFDE00BF000300500400AD0BAB
:2033E0000000AD0B38B545682B69B3B11035284601F0CEF9044680B90146284601F094F962
:20340000084B98420BD108492246284601F06CF9224605210620FFF71DFB002038BD6FF0F0
:203420000400FBE70000AD0B2D340000420970B5034602D0012A17D070BD0D4E3269516814
:203440000029F9D003F01F0301250C689D400029F2D08A682A4002D04B68304698472CB1F0
:20346000236821461C46F2E7024EE7E72346F8E75C640000486400002DE9F043466840F224
:203480000635D006337B87B002EA050554BFC2F34010032001F01F07B5F5837F144647EAB7
:2034A00043178DF8030045D00FD8062D18D007D8B5B1022D40D06FF0150007B0BDE8F0834C
:2034C000B5F5807FF7D101250AE040F20222954234D0B5F5407F33D0B5F5007FEBD10225C2
:2034E0000123220303FA01F12CD57368C3F80815326982BB07F01F037F0929D0012F77D1F6
:203500003E4A02EB830284F48033D2F80017C3F30043C4F3404444EA430421F4E16144EA77
:20352000800421F0070144EA05230B43C2F800370020C2E70725D3E70425D1E70525CFE7E9
:203540000325CDE7630344BF7368C3F80C15CFE74FF0A042D5E710360DF10202394630469F
:2035600001F0C8F814F4403F80460CD13946304602F008FE224B9845DAD19DF80210304671
:2035800001F010F9D4E701AB4FF0000903AA39463046CDE90439CDE90199CDF80C9000F04C
:2035A0006BFF174B984286D114F4003315D09DF803308DF80E3084F48034C4F300444B46AB
:2035C00003AA394630468DF80C508DF80D4001F00DF80B4B9842CDD06DE7CDE9043303AAE5
:2035E0000DF1030339463046039300F045FFF0E703F5E07352F82330FFDE00BF000300505A
:203600000000AD0B036803F01F025B09026004D0012B034818BF002070474FF0A0407047DE
:20362000000300502DE9F04FDFF86091DFF860A185B01546834600EB810140F2FF18594595
:2036400003D1002005B0BDE8F08FDBF800305804C3F3C322C3F3080400F191801B0E19F8A5
:203660000270444508BF4FF0FF34192B00F28A80DFE803F00D141A1D20261D88888888360B
:2036800063888888888888888888667C7F82C5F80C45621C5ED10BF1040BD0E7C5F8144589
:2036A000631CF8D000265FE0C5F80845F1E7C5F81045F5E7661CC5F80845ECD0002604E03C
:2036C000601CC5F80C45E6D0012603A80394FFF799FF039B012202FA03F3C0F80C3508E01F
:2036E000C5F80845002FDBD1631CD4D0002632460627DBF80030019303F40040002818BF2A
:20370000002203A8009218BF01260394FFF77AFF039C019B009A00EB8400C3F3412CD0F817
:2037200000473B0243EA8C03134304EA0A04234343EA4603C0F80037ADE7C5F80C45D1E7D2
:20374000C5F86045621CDBF80030A4D0C3F30043002BB9D003A80394FFF754FF039B012615
:2037600006FA03F3C0F808353246C2E7C5F86445E8E7C5F86845E5E7C5F86C45E2E76FF03C
:2037800015005FE76FF085005CE700BF1F6F0000F0F8FCFF2DE9F041044647680D4602F0F2
:2037A00017FE4FF0200868B9244B1B7853B16426606802F019FCD0B9012002F057FC013EDF
:2037C000F6D1F4E7EFF31186314688F31288BFF36F8F606802F008FCA8B986F31188BFF3AF
:2037E0006F8FEFE786F31188BFF36F8FDFE7EFF31186314688F31288BFF36F8F606802F0FE
:20380000F3FB0028EED0BB691D706368BA691B680020C3F844250122C3F84825C3F8200147
:20382000D3F82041C3F85801D3F858019A6081F31188BFF36F8FBDE8F08100BF0D14002057
:20384000F7B50546002201210220FFF703F90220FFF7D0F86A6811681369C1F82435137DD0
:20386000507D927D03431343C1F86C356E68D6E9004313F0010348D02F6907F1080002F0F5
:2038800001FC304B98425AD1387A04F10C0204F5907102F0EDFB387A012707FA00F000F067
:2038A000C1FB0823C4F80035B369C4F844350023C4F84835A760D4F85831002BFBD0002110
:2038C000C4F800156B68DC6801AA204602F05FFB002805DB019B226819791868FFF7A2FECD
:2038E0006A6813680821C3F80015117A51B9D269C3F834250122C3F83825C3F81011D3F8BC
:2039000010111A60002003B0F0BD0822C4F80025B269C4F84425C4F848350123A360D4F815
:203920002031002BFBD00023C4F82031D4F820310123E3604FF48073C4F80433BBE76FF062
:203940000400E0E70000AD0B70B5012383400E4ABFF35B8FDC4352E8001F01EA040542E84E
:203960000056002EF7D1BFF35B8F4FF4803282400648C0F80823BFF35F8FBFF36F8F0B42DA
:2039800014BF0120002070BDF01200200010014070B40E49D1E90034D01AC31844F100040C
:2039A00022F07F46C1E90034A6F50013B3F5400F09D2074B1B681A0A1B069C19054B42F180
:2039C0000005C3E9004570BC01F0D2BA90050020F41200209805002011B3BFF35B8F01232C
:2039E000104A834052E800CF4CEA030C42E800C10029F7D1BFF35B8F0B4A4FF480338340D6
:203A0000C2F80433094BBFF35B8F1B68BFF35B8FC340DB0742BF064B4FF40032C3F800211E
:203A2000704700BFF012002000100140EC12002000E100E00D4B1868010A0006BFF35F8F35
:203A40000B4BD3F80435181841F10001B3F5801F0AD2084BD3E90023904271EB030303D24B
:203A600010F1807041F10001704700BFF412002000100140980500202DE9F04F85B0164692
:203A80001F469DF840A00446FFF75EFF0190FFF7D1FFB04271EB070354D23E4B301A67EBB5
:203AA0000101984271F100014FD23B4B03EB0413D3E902239F4208BF96425ED037494FF4C9
:203AC000803804F1500508FA04F8AD00C1F848832046ADB202F0B9FA26F07F4B05F18045B0
:203AE00004F5A87305F58835DC464FF003090293029A2CF07F4341F82230C1F84483D1F8AB
:203B00000435274A6FF00200C01A604420F07F40904232D9286868B1D1F804350393A3EBA1
:203B20000B0020F07F40B0F5000F26D9204602F08CFA039BBAF1000F07D109EB030C09F1ED
:203B40000109D5E7BAF1000F09D06FF0150520460199FFF741FF284605B0BDE8F08F0123F2
:203B6000104ABFF35B8FA34052E8000F184342E800010029F8D1BFF35B8F07490E982301F5
:203B800001EB0412C8500F9B5360C2E902670025DDE700BF0100800080050020001001407B
:203BA000FDFF7F00EC1200207FB51C4C1C4BC4F80833C4F848331B4B00254FF0FF304FF003
:203BC000FF31C4F80855C3E902014FF48033C4F80433154B02264FF400320121C4F80463C2
:203BE0001120C3F880212A46FEF734FF1120FEF701FF0E4A0123A360236013600C4B0D4A57
:203C00000093CDE9015500232846FFF735FF3046FFF7FAF9284604B070BD00BF001001408C
:203C200003000F008005002000E100E0F012002091390000FFFF7F002DE9F7432F4CD4F80C
:203C4000043399070BD5D4F8043143B12C4A0023C4F80431D4F80431136801331360D4F83F
:203C60000433DA0329D5BFF35B8F264B53E8002F22F0010143E800100028F7D1BFF35B8FE0
:203C8000D30702D4D4F84031BBB10025C4F84051D4F84031FFF7CEFEEFF31182202383F32C
:203CA0001288BFF36F8F184BD3E90267B042B94106D282F31188BFF36F8F03B0BDE8F083E5
:203CC0004FF0FF384FF0FF39C3E90289D3E900101D604FF48033C4F84833C4F84051D4F831
:203CE000403182F31188BFF36F8F0029E5D0009032463B4628468847DFE700BF001001401B
:203D0000F4120020EC1200208005002030B5431C124C85B005D08442A8BF0446012CB8BFF3
:203D20000124FFF787FE0E4B0C4DD3E90013401AB0F5000F10D22218AA4228BF2A4652188B
:203D40004FF0000007490091CDE9010043F10003FFF792FE05B030BD2A46F0E7FFFF7F0069
:203D6000900500209139000008B5FFF763FE024B1B68C01A08BD00BF9005002010B5084CB4
:203D8000012363601120FEF743FE064BC4F80833C4F84833044B4FF40032C3F8802110BD69
:203DA0000010014003000F0000E100E04FF08053D3F83021082A06D1D3F83431052B02D86E
:203DC000024AD05C70470020704700BF3B6F0000024AD2F80034002BFBD0704700E001405C
:203DE00010B54FF08053D3F83021082A4ED14FF080420021C2F80C11C2F81011C2F83815A4
:203E000002F54042D3F80414C2F82015D3F80814C2F82415D3F80C14C2F82815D3F81014AC
:203E2000C2F82C15D3F81414C2F83015D3F81814C2F83415D3F81C14C2F84015D3F8201492
:203E4000C2F84415D3F82414C2F84815D3F82814C2F84C15D3F82C14C2F85015D3F83014DA
:203E6000C2F85415D3F83414C2F86015D3F83814C2F86415D3F83C14C2F86815D3F8401422
:203E8000C2F86C15D3F84434C2F87035FFF78EFF18B13A4B3A4AC3F88C26FFF787FF18B13E
:203EA000384BFB22C3F81825FFF780FF70B14FF080414FF08053D1F8E42ED3F8583222F080
:203EC0000F0203F00F031343C1F8E43EFFF76EFF20B12D4B4FF40072C3F840264FF0805307
:203EE000D3F83031082B1AD14FF08043D3F80024D20744BF6FF00102C3F800244FF0805358
:203F0000D3F83431052B02D8204AD35C3BB14FF01023D3F808224FF08043C3F858254FF002
:203F20001023D3F80022002A03DBD3F80432002B22DA174901234FF01020C1F80435122416
:203F4000FFF746FFC0F80042FFF742FFC0F80442FFF73EFF0023C1F80435FFF739FFBFF3CF
:203F60004F8F0C490C4BCA6802F4E0621343CB60BFF34F8F00BFFDE710BD00BF005000407D
:203F80004881030000F0004000900240356F000000E0014000ED00E00400FA0530B504686D
:203FA000CCB1BFF35B8FB4FA84F3C3F11F03DBB201229A4024EA020250E8005FA54204D1FE
:203FC00040E8002CBCF1000FF6D1BFF35B8FE6D102480B7030BD0248FCE700BF0000AD0B61
:203FE0000200AD0B10B50368CB40DB0714D401238B400268BFF35B8F43EA020150E8004F56
:20400000944204D140E8001CBCF1000FF6D1BFF35B8FEED1014810BD0148FCE70000AD0BD9
:204020000400AD0B014BC3F80405704700F00140F7B5044618B1012823D003B0F0BD4FF052
:2040400080430222C3F808230122DA60C3F80401D3F80431064601238DF8073042F2107591
:204060004FF08047D4B1012CE7D1D7F80C3403F48033AEBB83B3012001F0F8FF013DF4D16C
:204080002AE04FF080430022C3F808035860C3F80021D3F800310DF10706DCE7D7F81834B3
:2040A00003F480333EB9002BC7D0012001F0DEFF013DF3D1C1E7D7F8182402F00302326070
:2040C000002BBAD09DF80700012803D101F0CEFF013DC7D1012CB0D1054B00225A71ACE780
:2040E000D7F80C2402F001023270002BEAD1F3E7F8120020044B1A7922B9012218609A80CE
:204100000248704702487047F81200200000AD0B0C00AD0B08B5074B1B682BB10020FEF774
:204120008BFC08B9FEF766FC4FF080430022C3F8182508BDF812002010B510B1012843D013
:2041400010BD4FF08043D3F81814D3F81824C80321D502F00303012B04D013B10020FFF7FF
:2041600067FF00234FF080420220C2F8183508224FF4827303F180430021196002F1804224
:204180001C6801241460154A12680AB34FF08043C3F80403D4E7D3F81424D107E1D5D3F891
:2041A0001C249207DAD40D4A12681AB10222C3F80423C5E7D3F80421002AFBD00022C3F868
:2041C0000421D3F80431BBE700224FF48073D1E71A68002AFCD019601B68B1E7F8120020D2
:2041E00010B54FF08043D3F800216AB10022C3F80021D3F800210122C3F80823114B5879D1
:2042000010B95A711B6898474FF08043D3F8042172B10022C3F80421D3F80421D3F818249A
:20422000D3F81824920704D10122C3F818259A6010BD0222C3F80823024BBDE810401B6858
:2042400001201847F8120020036803F01F025B09026004D0012B034818BF002070474FF037
:20426000A040704700030050034A430900F01F00D35C1844C0B27047416F000070B50546D8
:20428000FFF7F2FF0C4C08300E4634F81030DA0508D5C3F3432304EBC302284654F833303E
:2042A00052689847A3682BB1E26831462846BDE87040184770BD00BFE004002008B5FFF7F8
:2042C000D3FF034B083033F81000400B08BD00BFE004002008B5FFF7C7FF034B083033F84E
:2042E0001000C0F3400008BDE004002008B5FFF7BBFF034B083033F81000C0F3401008BDFC
:20430000E0040020034611F0010010B5CCB20DD1A207C4F3400012D5094AD2F820055860AC
:20432000C2F82005003818BF012008E04FF0A041D1F820251A60C1F82025002AE8D010BD31
:204340000003005010B5FFF78FFF124A083032F81030D9051CD5C3F3432123F4F85322F85E
:20436000103002F10E04002034F8023F13F4807F03D0C3F3432399420AD001303028F3D174
:20438000002342F831300448BDE81040FFF72ABE10BD00BFE004002058050020F0B5054643
:2043A00000200446012607468C420BD1114BD3F87C2132B10022C3F87C21D3F87C3140F0AC
:2043C0000040F0BDE3B29B0003F580729B0806FA03F31D420BD002F1804202F5C042D2F88B
:2043E00000C0BCF1000F02D01760126818430134DAE700BF00600040F7B506460846FFF792
:2044000033FF194F00F108050C4637F81530DB0727D5304601F092FE2046FFF767FF40B1B6
:204420002046FFF74BFF316800F5A270002341F820302046FFF786FF002301A827F8153079
:204440000194FFF701FF019B00EB8300074BD0F80027134043F00203C0F80037044803B00D
:20446000F0BD0448FBE700BFE0040020F0F8FCFF0000AD0B0400AD0B2DE9FF4116468046CF
:204480000846FFF7F1FE0D463168044609B32846FFF720FF18B12846FFF728FF10BB002332
:2044A000CDE900338DF80E308DF80F300DF10F020B4628460DF10E0101F0E8FD474A04F155
:2044C000080132F8113023F0020343F0010322F81130736863B328461F785968FFF7FAFE19
:2044E00010B1D1B13E4826E03C4A04F1080032F8103023F02003DB04DB0C22F8103061B198
:20450000032FEFD87168496891F800C0D8F80010A7B90CF5A27C41F82C70304A04F1080123
:2045200032F8113023F01C0343EA870322F81130B3684BBB2B4804B0BDE8F08101EB8C01F5
:2045400043EA4C33D1F810E52EF0030EC1F810E5D8F8001001EB8C0E43F02003DEF810155D
:2045600022F8103021F44F3121F44071CEF810152902DEF8108501F47C5141EA074141EAA5
:204580000801CEF81015C8E7D3E900672846FFF7D9FE002ECED0114DD5E90023964203D163
:2045A0009F4201D1002209E00F480DF10F01FFF7F5FC0C4B9842BED19DF80F2045F832609E
:2045C00005EBC20308345F6035F8143043EA422343F4807325F81430ACE700BFE004002047
:2045E0000400AD0B0000AD0B580500202DE9F0430C4685B08046204611461E46FFF734FEEB
:20460000054629B32046FFF765FE18B92046FFF76DFE18BB314F05F1080937F8193013F047
:204620001C0F02D04B78012B18D001238DF80F300023CDE900134A1C8B1C20460DF10F0151
:2046400001F024FD37F8193043F0030327F81930002E41D02046FFF73DFE18B9204805B06B
:20466000BDE8F08396F800C0D8F800301B4F0CF5A272002143F8221005F1080237F8121076
:2046800021F02001C904C90C27F8121075781DB3D8F80000B67800EB8C002D04D0F8103595
:2046A00023F4991323F4F853C0F81035230203F47C5305F440353605D0F810E52B4306F41F
:2046C000801641EA4C31334341F0200143EA0E0327F81210C0F810350248C0E7E004002063
:2046E0000400AD0B0000AD0B014BC3E902127047E004002010B508461446FFF7F7FD50B127
:204700000846FFF7B1FD054B083033F8103004485B0B237010BD0348FCE700BFE0040020B1
:204720000000AD0B0400AD0B70B5164D95F8804006462CBB2146602205F1100001F0C6FA5D
:2047400030682E6F21468E420ED10023C0F87C31D0F87C3140F30730FEF74CF901230A48F7
:2047600085F88030AB6770BDCBB29B0003F580727C2B08BF845001F1010108BF8358E2E72A
:204780000248F0E7E00400200000AD0B0C00AD0B034B93F88000003818BF0120704700BF79
:2047A000E00400200148FFF71DBC00BF540500200148FFF7F3BB00BF5405002073B50368ED
:2047C0001646D3F80423002AA8BF4FF000420546A8BFC3F8042308460C46FFF787FD00B318
:2047E0000846FFF777FD0146D8B92046FFF766FD04B2A40004F580720346286881502968EA
:2048000082582144D1F8102542F00102C1F810252EB12968012202FA03F3C1F8043302B011
:2048200070BD2046FFF720FD0F4B083033F81030C3F38203042B12D0052B12D001A8019439
:20484000FFF702FD019AD0F81035D34003F00103991C204602B0BDE8704001F060BC03215E
:20486000F7E70221F5E700BFE00400202DE9F04F694BDFF8A881D3F80403D8F87010C0B2FB
:2048800089B040F00040FFF789FD051E2FDAC24600235AF87C1F06A8CDE90633FFF732FDED
:2048A0005F4B01930DF118094FF0000B019A12F8013B0192DA0803F007031AF8022022FAAE
:2048C00003F3DA071CD409F10409BBF1000F14D0D8F870104FF00040FFF760FDD8F87C10ED
:2048E00006A8FFF70FFD0028DAD125F000450124002D79D109B0BDE8F08F4FF0010BD5E75B
:20490000484B5B440293D9F800100029DBD0029B91FAA1F11C78B1FA81F141EA44142046C7
:20492000FFF7A2FC0830059438F81070C808BB0819F80020039301F00701012303FA01F1FC
:2049400022EA010209F8002005A8FFF77DFC059A039B02F5E072C7F3820650F822205B0757
:204960003746C2F3014224D520463946D6B2FFF785FC05A80594FFF767FC059B03F5E0735B
:2049800050F82330C3F301439E4207D10021204601F0C5FB3146204601F0C1FB05A80594C2
:2049A000FFF752FC059B012202FA03F3C0F82035A9E7022A0CD10321204601F0B0FB06F03C
:2049C0000503012BEAD139462046FFF757FCE5E702212046039201F0A2FB032EF3D0039AB1
:2049E000032ADBD1022EEDE795FAA5F3B3FA83F304FA03F29B0003F1804303F5C04325EA41
:204A00000205D3F81005D3F81015C0F30520C1F30141FFF733FC6BE700600040E0040020D6
:204A2000516F0000516F0000044AD2F80034DB07FBD50160BFF35F8F704700BF00E0014060
:204A40004FF080531A69B0FBF2F302FB130373B9084B0222C3F80425C3F80805D3F80024E0
:204A6000D207FBD500220448C3F8042570470348704700BF00E001400000AD0B0A00AD0B28
:204A800010B5054C0123C4F80435FFF7CDFF0023C4F8043510BD00BF00E0014001460148D0
:204AA000FFF77CBA6405002030B5816885B0103921F00704054601F07AF810220146684604
:204AC00001F004F907491022684601F0F4F810236A462146284601F036F8003818BF0120D4
:204AE00005B030BDB269000030B50D46816887B0102302AA1039044601F010F8002802DA32
:204B0000012007B030BD102202A9204601F06FFB00283AD11E49102202A801F0BCF80028EF
:204B20000CBF012302232B70204601F04CFB012301460DF10702204600F0F0FF0028DFDB8F
:204B40009DF8073003F00F021B096A702B7101220DF10701204601F04AFB10B96B78042B4B
:204B600003D901236B7000232B71A268183A22F00702083AA91C204601F04CFB0028BFD1C7
:204B8000E91C204601F09FFBBBE70323CBE700BFB2690000F0B53E4F46008BB0054606A91E
:204BA00057F8260001F095FB044610B1FF200BB0F0BD013608A957F8260001F08AFB012871
:204BC00044D1344B34490395CDE90143009423460322204601F0E8FA304B08938DF82440D8
:204BE0009DF818609DF820702D4C00222078314601F0EFFA88B36078394601F0EAFA60B385
:204C0000A378042B03D09DF81B10994225D1E378042B03D09DF8231099421ED12379042B2C
:204C200017D16279022A29D11E4B1B49CDE903531D4B029300231846CDE90033032201F035
:204C4000B3FA6079831E022BB1D9AFE70028C7D0ACE79DF81A109942E3D00132032A04F1EC
:204C60000604C3D1114B029300231846CDE900330949039501F098FA012098E7032A05D02C
:204C80000B4B0C49042A08BF0B46CEE70A4BCCE774690000766F000018660000030103031C
:204CA000FC6F0000586F0000BC6F0000DB6F00005D6F00006F6F0000536F000010B5124CBE
:204CC000A8220021204601F001F8032323610F4A63610F4BA261E3614FF480632362002363
:204CE000A3626362E36222660A4A62661022A266094A2367E366636712F8011DE154013346
:204D0000102BF9D110BD00BF100400200E7000001000002000000020277000002DE9F84F0C
:204D2000DFF87C80182606FB008E00FB06664644DEF82440DEF828C07368A445074689460A
:204D4000154603EB040022D8DEF820B0ABEB040A0AF1FF339A4203D800F0ADFF2C440FE0E3
:204D600063449A4219D852462C4400F0A4FFB4EB0B0405D07068224609EB0A0100F09BFFD8
:204D8000182303FB078301205C62BDE8F88F0CF1FF3CACEB040C9445DED20020F5E700BF22
:204DA00010040020034B182202FB00339A6A586A801A70471004002038B5094B53F82040D0
:204DC000013053F82050A54200D838BD636823B1204601F0E0FA0834F5E723689847FAE700
:204DE0007C69000008B50A4B012203201A70FFF7E3FFFDF75DFC01F0EAFA0420FFF7DCFFFD
:204E0000FBF7E8FA034A137B23F00103137308BD0D140020A005002008B50348034A002105
:204E2000121A01F0D0FA08BD800500201014002008B50020FFF7C0FF194B83F30888194C7C
:204E4000636943F4007363610025E02384F82230E57725766576A57684F82050636A43F445
:204E6000E023636284F82350FDF772FDFDF75CFE4FF0FF33A362E362FDF7F0FEFDF778FEC3
:204E8000FDF7FCF801F05DFA0120FFF795FF0220FFF792FF04482B462A462946FDF72CFED4
:204EA000801C002000ED00E0E54D00000748084A084908B5121A01F088FA0748074A0849F8
:204EC000BDE80840121A01F080BA00BFC00400208005002030700000B8040020C0040020E6
:204EE00028700000034B1B680BB9FEF73DBF0020704700BF0013002030B570B10B4B5B68AC
:204F000098420AD0036843B1D3E90421D0E90445121941EB0501C3E90421D0E9003213600F
:204F20005A600023C0E9003330BD00BF6805002010B50E4B1C689C4204D1FFF7D3FF6FF003
:204F4000004010BDFFF7CEFF002CF8D0D4E904321B1A62EBE072B3F1004F72F10001EEDAA7
:204F6000002AACBF18460020EBE700BF680500202DE9F84FEFF3118C202383F31288BFF31F
:204F80006F8FDFF8ACA0DFF8AC902B4FC9F80000DAF800000024504508BF00200025D7E94B
:204FA0000021D9F80030E04678B3D0E9046C4FEAE37EB3427EEB0C0B05DAF61A6CEB0E04EE
:204FC000C0E9046421E0B21841EBE671C0E90445C7E90021FFF790FF88F31188BFF36F8F66
:204FE00083689847EFF31188202383F31288BFF36F8FD9F80030DAF800009B1B5045C44641
:20500000C9F80030CBD1D7E900219A1841EBE3730024C7E90023C9F80040FFF789FF214611
:20502000FEF774FE88F31188BFF36F8FBDE8F88F68050020001300202006002070477FB528
:205040000BAB059303930A9B02930023CDE90033184600F083FC07B05DF804FB007870471F
:2050600030B583688B4285B0044615460ED96368C068194401AA00F0E0FE28B96268019BC2
:205080009B1A2B60029B6B6005B030BD6FF02100FAE770472DE9F7430E4617469946044684
:2050A00028B94FF0FF38404603B0BDE8F0830029F7D0002AF5D0CB680D891D4404230DEB20
:2050C00003022946384600F029FD80460028E8D1BDF80410738946F60812914225D1BDF888
:2050E00006109942DDD104230DEB03022944384600F014FD0028D4D1BDF8042046F6071305
:205100009A42CED1C4E900679DF82830A4F80890A3727389BDF806202B44E36073891344EE
:205120002B44043563612561BDE7002BE4D0B8E72DE9F3410E4617461D46044620B94FF09B
:20514000FF3002B0BDE8F0810368002BF7D04368002BF4D04FF6FF78D4E904239A4216D2FD
:2051600023685B8923B1E368934204BF043323610423216960680DEB030200F0CFFC0028F5
:20518000DDD1A37A2BB1D4E903329A4201D30120D7E72389BDF80610434501F1040203D01D
:2051A000BDF804C09C450BD115B1BDF804302B802369043333603980236913442361C0E742
:2051C000236913442361C7E748B103683BB143682BB1C068884294BF0020012070474FF067
:2051E000FF30704700F057BD40F2651358433030704710B5044600F0D3FCA36840F26512E7
:20520000303B02FB103010BD70B50D46044600F0DAFF2A46A0F1080104232046BDE87040A2
:2052200000F07CBC13B50446019100F0CCFF0423A0F108010DEB0302204601F007F802B021
:2052400010BD70B513460E461546002102460446FBF746FD50B92B4604F12C020121204647
:20526000FBF73EFD10B1002E08BF002070BD7FB50BAB059303930A9B02930023CDE90033A0
:20528000184600F06BFB07B05DF804FB73B5044600200D461646FBF73DF96946C0B2FDF7D1
:2052A000AFF930BB2C2303FB05440098E36825891D4404230DEB0302294600F02FFCC0B9AC
:2052C000BDF804206489009846F608139A4215D1BDF806309C420CD104230DEB0302611913
:2052E00000F01CFC28B9BDF8042046F607139A4207D0009800F011FC02B070BD002CF2D081
:20530000F7E7BDF80610214429443160F1E737B50446426A772501A901200195FDF798F945
:2053200058B9019B226DA36201A902200195FDF78FF9054628B1092500E00125284603B0D5
:2053400030BD019B206A636500F02AFCE065F5E70123036003F1012343600023C0E90233F8
:2053600070474379012B07D10368012B04D10079431E584258417047002070477FB506462F
:205380000D46012001A9FDF73BF938BB0198FFF730FFF16D0446284600F0DFF80444019858
:2053A00000F0FEFB0646019800F001FC082201460DEB020000F08AFC2B798DF80830214689
:2053C0000198334602AA00F0BEFB041E019818BF012400F0A2FB204604B070BD0124FAE7D5
:2053E00000F0C6BB2DE9F8430E46002107460846FBF790F8012104460020FBF78BF83378B5
:20540000A34220D0834220D101252C2303FB0575F86DAC6AFFF7E8FE013C804600276B6ABE
:2054200003EBC40253F83410D2F804901B684A46C91A30464F44FFF7D3FFB84504F1FF34DF
:20544000EDD8BDE8F8830025DFE70120F9E737B515460C460220694600F03BFFE97901295B
:2054600003D00022204600F048FF9DF80330012B02D1204600F020FFA9682046FFF7D2FE21
:205480002046FFF711FB002003B030BD73B50D460646FBF74BFD0446E86058B302282ED11D
:2054A00001A90120FDF7ACF858BB01982A463146FBF77CFC0446D0B9019800F084FE01238A
:2054C00001460DF10302019800F028FB0446A0B9019801220DF1030100F089FE10B1012319
:2054E0008DF803309DF8033003F00F03EB71019800F013FB204602B070BD0124F7E70724C1
:20550000F8E70124F6E738B5436A0446C06D5D68FFF76AFE0246A06A002301382B449A427D
:2055200001D90138FAE738BD7FB50BAB059303930A9B02930023CDE90033184600F00EFACE
:2055400007B05DF804FB436A00205A68034613448B4200F10100FAD3704710B543790279D2
:20556000012B1ABF77234B43002302F1FF3201FB0233026814BF4C000C46013A04FB02303F
:2055800010BDF8B50C4610B1F9B10AB90120F8BD8D1800F128060027836E5A1C82660344BA
:2055A00014F8011B83F828103F2A0BD93146FBF7A9FED0E9083213F5007342F10002C0E967
:2055C00008328766A542E7D1E0E70846DFE7F8B50C460546002855D0002954D08B6ED1E993
:2055E0000821D800121841F10001581C2344C4E9082138284FF08002A0664FF0000783F8B4
:20560000282004F128060AD9C0F140023946304400F03BF831462046FBF774FEA766A06ED7
:205620000021C0F13802304400F02FF8236A1ABA636A62661A0A84F8633084F862201A0C86
:205640001B0E84F86030314684F861202046FBF759FE2B1D211F243551F8042F03F8012C6D
:20566000100E03F8040C100C03F8030C100A03F8020C0433AB42EFD120467022002100F0CB
:2056800004F80120F8BD0846FCE700F01FBB10B5036A0446D8688368DB689847E36CD868E5
:2056A0008368DB689847012010BD2DE9F04706460D46174698462BB398F8004093F80190FE
:2056C000DB78A40004EB430498F802301C4444444FF0000ACA4509D3D8F8042008F10803C7
:2056E00039463046AC46BDE8F047604714F8013B48F82340204600F0C7FA013004440AF1CA
:20570000010AE7E76FF01500BDE8F087002070470FB407B504A951F8040B019100F0F4F857
:2057200003B05DF804EB04B07047038B13F0070305D10368002B0CBF002003207047022B0E
:2057400005D1408BB0FA80F0400980007047012B05D10368002B0CBF00200520704700208F
:20576000704710B50C4600B111B96FF0150010BD081D00F093F80028F9D1A368032BF6D905
:20578000F3E72DE9F0410D4607461946281D90461E4600F094F8044638B13346424629464B
:2057A0003846A446BDE8F0416047BDE8F08110B4EFF31182202484F31288BFF36F8F41610E
:2057C00010BC0121FCF7D6BA38B50C46054658B151B10B6843B14B6833B11C22002100F076
:2057E00075FA2C61002038BD6FF01500FBE770B505460E46FFF7B5FF041E14DBEFF311824E
:20580000202383F31288BFF36F8F6B8B2C8B4FF6FF718B4204F0070407D182F31188BFF3BF
:205820006F8F6FF00A04204670BD022C0CD101336B8382F31188BFF36F8F0023224631467D
:205840002846FFF79EFFEEE7062C14D8DFE804F004131313041A0400002333606B683BB9BD
:20586000C5E90066ACB902212846FCF783FADAE71E606E60F6E782F31188BFF36F8F6FF0A7
:205880000404D0E782F31188BFF36F8F6FF08504C9E782F31188BFF36F8FC4E7034658B138
:2058A000426802F00302012A03D0032A04D1026812B10020986070476FF015007047426876
:2058C000816002F00302032A4FF0000203460CBF006810465A60704770470020704700F0C1
:2058E000C0BB0346BFF35B8F53E8000F421C43E800210029F8D1BFF35B8F704708B5002032
:20590000FCF746FB002008BD1FB50023CDE90201CDE900331A461946184600F01FF805B0FC
:205920005DF804FB70470020704770B50E4615461946044618B9BDE87040FCF7D1BB33B17F
:20594000C2F34A231030120D184400F0B4F9C4E900562046BDE87040FCF7DABB2DE9F04F32
:2059600085B002AFD7E90EA93D6B04460E4693469846BAF1000F11D0C7F80490CDF800908A
:2059800010217A6B53460020FBF7FAFDB0F5006F014604D30C37BD46BDE8F08F514604F028
:2059A00007040BF0070BE40044EA8B1444EA412444EA055417350D4425F00705ADEB050D9C
:2059C00002ADBAF1000F07D0CDF800907A6B534605F11000FBF7D4FD434622463146284615
:2059E000FFF7A3FFD6E7F8B506460D4614461F4604B9F8BD214628463A46B047241A054402
:205A0000F6E707B5D1E900328DF80700526801210DF107009847002003B05DF804FB0A285C
:205A200038B504460D4602D10D20FFF7EAFF29462046FFF7E6FF002038BD13B500240094B8
:205A4000FBF776FF02B010BD2DE9F043054687B008460E8891F80090D1F808800C46174698
:205A6000FCF794FB011EC6F38216C9F3C2091EDB4846FCF769FB03462146608851F8102BB3
:205A80000196C2F34A22002A01EB0204C0F30B1008BF00210022CDE90407CDE9021400923B
:205AA00041462846FCF79EFB07B0BDE8F0830023E2E743681B685B680020196170474368BD
:205AC0001B681A685268536070472DE9F04143681B685A68012111751D68D5E90136D3E988
:205AE00000482F681CB96B681C60BDE8F081214630464246B847241A0644F3E770B54368F7
:205B00001D686B6818690C46FCF7A2FA214603460F222868BDE8704018477047002930B4E2
:205B2000044618460BDBA5680844A84207D8E0686468214484682468A44630BC60476FF0E8
:205B4000150030BC7047002930B4044618460BDBA5680844A84207D8E0686468214484686B
:205B60006468A44630BC60476FF0150030BC70470029034610B410460BDB9C680844A04221
:205B800007D8D8685B68194483689B682BB110BC18476FF0150010BC70476FF05700FAE743
:205BA00008B5C0688368DB689847006808BD08B5C0688368DB689847407908BD70B54C687D
:205BC0000368A34201D2012070BD8A682244934201D30020F8E7D1E903254E69B54203D3EE
:205BE0006FF00B038B61F4E71B1B42F835304368086902EBC00253600B6901330B61E2E741
:205C0000012801D1EFF3058300F0B6BB01460068FFF7F6BF08B5FCF759FDBDE8084000F081
:205C200000B8704700210120FFF7EABF61B662B680F31188BFF36F8F7047EFF311802023BC
:205C400083F31288BFF36F8F704772B6002383F31188BFF36F8FBFF34F8F20BF80F3118848
:205C6000BFF36F8F62B67047202809D9B0F1004F08D80138B0FA80F0C0F11F004000704791
:205C8000082070473E207047034600201A5C02B970470130FAE710B55AB10139841810F8FF
:205CA000012B11F8013FA04201D09A42F7D0D01A10BD1046FCE710B5431E0A44914200D111
:205CC00010BD11F8014B03F8014FF7E7C9B202440346934200D1704703F8011BF9E74FF0DC
:205CE000FF3070470369C9B20C2201FB0233186C00F00700704770B5C9B20369EFF31185C2
:205D0000202484F31288BFF36F8F0C2606FB0134246C14F0C00408D0A24206D085F311881B
:205D2000BFF36F8F4FF0FF3070BD71430B4401221A6485F31188BFF36F8F43680B445B68F6
:205D400098470020F0E78022FFF7D5BFF8B5069F0469C9B2EFF31186202585F31288BFF385
:205D60006F8F0C2569430C44256C05F0070CBCF1010F0BD1276486F31188BFF36F8FC4E9CC
:205D80000E2343685B5898470020F8BD05F0C005AF4286F31188BFF36F8F0CBF6FF07700B2
:205DA0004FF0FF30F1E713B580240094FFF7CEFF02B010BD6FF08500704710B40069CBB216
:205DC0001C2403FB0400002110BC10470020FEF7B3B9002000F058B9F7B51C46164600230E
:205DE00082682360A36013690D4601AA69469847019B5A1E01921BB96FF0150003B0F0BDDC
:205E00000098A26847682168676085B9B31AD0F800C0634528BF63461A4403FB0711216021
:205E2000A26002689A4206D808300090E0E76B1AB3FBF7F3EBE70020E0E713460022FFF766
:205E4000CBBF2DE9F047836886B01B698846914601A902AA98470024A2462546029BAB42EB
:205E600002D806B0BDE8F087019F07EBC50700267B6804933A68B2420AEB060302D80135D4
:205E80009A46EBE703940593494603A8C0470028E7D0049B01361C44ECE738B505460C466E
:205EA00000F074F9002D07DBA84205D9401B84428CBF0020012038BD0020FCE770B50D4691
:205EC0002846194616461C46FFF7E7FF38B124B1224629463046FFF7EEFE002070BD6FF0C2
:205EE0001500FBE743685B68D3F810350B600020704743685B6802EA010021EA0201C3F8C7
:205F00000805C3F80C150020704743685B680020C3F80815704743685B680020C3F80C153A
:205F2000704743685A68D2F8043521EA03000B40C2F80805C2F80C350020704710B5036917
:205F40005868F8B1884219D19C6808685860A14200D19860002008602AB15A680A609A68BB
:205F6000596002B99960002010E0814206D10868206098688142EDD19C60EBE70446006819
:205F80000028F2D1002AE8D16FF0150010BD30B543681360057A446804EBC504A34202D352
:205FA0006FF0010030BD5C798C4201D00833F0E70020F7E743681B68D3F88004C3F8800454
:205FC000704742681368D3F8100150B1D269002012780A70C3F81001D3F8102101221A6044
:205FE00070474FF0FF30704702680346D2F8580140B95B68DB0706D4D2F82001003818BF7D
:20600000012070470120704743681B68D3F80423D20517D5D3F82021A2B1EFF311822021D8
:2060200081F31288BFF36F8FD3F8201131B10021C3F82011D3F820110121D96082F3118852
:20604000BFF36F8FD3F85831704700F150039B009BB203F1804303F5883300221A601B68D0
:20606000704708B5FDF7E6FC08BD004700F065B9C00000F1804000F5F830C0F81015C0F899
:2060800014257047FEF70ABDFDF7D2BFF7B5019001A8DDE9084716461D46FEF7D5F8019BB7
:2060A000B6F1000C18BF4FF0010C00EB83000B1E18BF0123002D43EA4C0314BF4FF00C0CA5
:2060C0004FF0000C002C43EA0C0314BF4FF4E06C4FF0000C002F43EA0C03D0F8002714BF33
:2060E0004FF4403C4FF0000C43EA0C0322EA030301B109780EB13678760019430DB12D7873
:20610000AD0031430CB12478240229430FB13F783F040C433C43C0F8004703B0F0BD1FB5B8
:206120000DF10F03019300238DF80F1000931A461946FFF7ABFF05B05DF804FB38B50546C1
:2061400008460C46FEF7D2F8B0B10846FEF7C2F890B90846FEF7B2F82A6801238340C2F819
:2061600008332A6803B202EB8303D3F8102522F00302C3F8102538BD20460021BDE838408A
:20618000FFF7CDBFFEF738B9FFF7D8BF4FF080531A695869504370474FF080531869704720
:2061A0004FF08053586970477FB50BAB059303930A9B02930023CDE900331846FFF7CEFBDA
:2061C00007B05DF804FB8068183820F0070010387047042809D0052803D1481E18BF012002
:2061E0007047431A5842584170470120704738B515460C4661B15AB1FFF7D9FC2544214677
:2062000011F8013B834203D1A942F9D1012038BD0020FCE738B50C46012311462246054665
:20622000FFF77CFC00280FDB012221462846FFF7DEFF38B92378012B14BF022301232370AC
:20624000002038BD0323FAE70120FAE72DE9F7431D4606460F469046FFF7A2FC6C1E044490
:2062600040420440082C1AD83046FFF7A0FC2A46814641466846FFF71EFD621B49460DEBA9
:206280000500FFF723FD23466A4639463046FFF75AFC003818BF012003B0BDE8F0834FF04F
:2062A000FF30F9E707B501238DF8042001AAFFF7CDFF03B05DF804FB81681839012221F064
:2062C0000701FFF7EFBF8268183A22F00702FFF7A1BF13B50C46C0B201A9FCF791F950B9A9
:2062E00021460198FEF700FC04460198FFF715FC204602B010BD0124FAE713B541EA0211D2
:2063000004468DF80710FFF75EFF012301460DF107022046FFF79AFF02B010BD8168183924
:2063200021F0070101220839FFF7BCBFFEF7C6BC08B5FFF7FBFF002008BD08B1FCF76ABD93
:206340007047704740B1C368587810F001001EBF1878B0FA80F040097047EFF311832023A2
:2063600083F31288BFF36F8FFEE710B50446FBF799FE2046FFF7F1FF10B5EFF31184202315
:2063800083F31288BFF36F8FFFF7EFFF84F31188BFF36F8F10BD10B5D0E9003433B900200E
:2063A000E268537843F00103537010BD204698470028F4D00028B8BF4042E368FF28A8BFD6
:2063C000FF201870ECE7FFF781BCFFF774BC7047EFF30580003818BF01207047589DFF7F72
:2063E00001000000D12D000000000000D12E0000346400003163000000000000E53300005B
:206400005C640000E5330000486400004138000070640000FD30000000000000A93B00009A
:2064200000000000FD580000000000006531000084640000CE6E0000806800009868000065
:20644000700500206C120020036F0000D06800000069000074050020C8120020116F0000E3
:20646000E86800000069000076050020D4120020276F000024690000686900007805002031
:20648000E0120020E96E000000000000B46800007205002000000000E14100006B600000F3
:2064A00000000000255C0000706400000960000000000000255C000000000000255C00001C
:2064C00000000000255C00006D4800006B60000000000000255C000000000000255C0000B9
:2064E00000000000255C000000000000255C000000000000255C000000000000255C000098
:2065000000000000255C000000000000255C000000000000255C000000000000255C000077
:2065200000000000393C000000000000255C000000000000255C000000000000255C000063
:2065400000000000255C000000000000255C000000000000255C000000000000255C000037
:2065600000000000255C000000000000255C000000000000255C000000000000255C000017
:2065800000000000255C000000000000255C000000000000255C000000000000255C0000F7
:2065A00000000000255C000000000000255C000000000000255C000000000000255C0000D7
:2065C00000000000255C000000000000255C000000000000255C000000000000255C0000B7
:2065E00000000000255C000000000000255C000000000000255C000000000000255C000097
:2066000000000000255C000000000000255C000000000000255C00006D6A0000030000001D
:20662000986700001C120020466E000001000000DC670000D0040020566E0000010000005C
:206640000338FDD8704700000100000002000000010000000200000001000000020000006A
:20666000982F8A4291443771CFFBC0B5A5DBB5E95BC25639F111F159A4823F92D55E1CABC4
:2066800098AA07D8015B8312BE853124C37D0C55745DBE72FEB1DE80A706DC9B74F19BC1BC
:2066A000C1699BE48647BEEFC69DC10FCCA10C246F2CE92DAA84744ADCA9B05CDA88F976E8
:2066C00052513E986DC631A8C82703B0C77F59BFF30BE0C64791A7D55163CA0667292914EC
:2066E000850AB72738211B2EFC6D2C4D130D385354730A65BB0A6A762EC9C281852C729234
:20670000A1E8BFA24B661AA8708B4BC2A3516CC719E892D1240699D685350EF470A06A10AA
:2067200016C1A419086C371E4C774827B5BCB034B30C1C394AAAD84E4FCA9C5BF36F2E683F
:20674000EE828F746F63A5781478C8840802C78CFAFFBE90EB6C50A4F7A3F9BEF27871C61E
:20676000495A000000000000000000000000000000000000266E00002E6E00000000000046
:206780000000000000000000366E00003A6E00003E6E0000426E0000092500000000000023
:2067A0002D250000F124000000000000FD240000000000006125000024120020071400203A
:2067C00001000000CC67000034120020D12500004C1200200814002001000000FD5A000017
:2067E00000000000CB5A0000BF5A000000000000B35A00000000000004000000000000004A
:206800000000000000C00000846400000100000000C00000007007008464000002000000AE
:206820000030080000700700846400000300000000800F000080000084640000C0040020E3
:206840000000000000000B06801C00204000000000000B15020000005C6800000000000045
:20686000B96E00002600020200000020C16E000022000B11592E0000292E0000000000005C
:20688000752F00009D2E0000DD6E0000CD5D0000D35D0000E36E0000B55D0000475D0000DD
:2068A000A75D000000000000E55C00000000000000000000BD5E00007132000001320000A2
:2068C0005D3100004D3100000400000000FF0000FFFF000000030050000000000100000057
:2068E0000060004000000000BCF801FF000000500000000000000000006000400000000054
:2069000079340000E55E0000F35E00000B5F0000175F0000235F0000E53200003D5F000021
